{
  "_format": "hh-sol-artifact-1",
  "contractName": "DaoReview",
  "sourceName": "contracts/DaoReview.sol",
  "abi": [
    {
      "anonymous": false,
      "inputs": [
        {
          "indexed": true,
          "internalType": "address",
          "name": "creator",
          "type": "address"
        },
        {
          "indexed": true,
          "internalType": "address",
          "name": "uniqueAddress",
          "type": "address"
        },
        {
          "indexed": true,
          "internalType": "string",
          "name": "ipfsHash",
          "type": "string"
        }
      ],
      "name": "DAOCreated",
      "type": "event"
    },
    {
      "anonymous": false,
      "inputs": [
        {
          "indexed": true,
          "internalType": "uint256",
          "name": "reviewId",
          "type": "uint256"
        },
        {
          "indexed": true,
          "internalType": "address",
          "name": "dao",
          "type": "address"
        },
        {
          "indexed": false,
          "internalType": "address",
          "name": "reviewer",
          "type": "address"
        },
        {
          "indexed": true,
          "internalType": "string",
          "name": "ipfsHash",
          "type": "string"
        }
      ],
      "name": "ReviewAdded",
      "type": "event"
    },
    {
      "inputs": [
        {
          "internalType": "address",
          "name": "_uniqueAddress",
          "type": "address"
        }
      ],
      "name": "getDaoInformation",
      "outputs": [
        {
          "components": [
            {
              "internalType": "address",
              "name": "daoCreator",
              "type": "address"
            },
            {
              "internalType": "address[]",
              "name": "daoOwners",
              "type": "address[]"
            },
            {
              "internalType": "string",
              "name": "ipfsHash",
              "type": "string"
            },
            {
              "internalType": "address",
              "name": "nftContractAddress",
              "type": "address"
            },
            {
              "internalType": "address",
              "name": "erc20Contract",
              "type": "address"
            },
            {
              "internalType": "bool",
              "name": "isVerified",
              "type": "bool"
            },
            {
              "internalType": "bool",
              "name": "isErc20Gated",
              "type": "bool"
            }
          ],
          "internalType": "struct DaoReview.DaoDetails",
          "name": "",
          "type": "tuple"
        }
      ],
      "stateMutability": "view",
      "type": "function"
    },
    {
      "inputs": [
        {
          "internalType": "uint256",
          "name": "_id",
          "type": "uint256"
        }
      ],
      "name": "getReviewFromReviewId",
      "outputs": [
        {
          "components": [
            {
              "internalType": "uint256",
              "name": "timestamp",
              "type": "uint256"
            },
            {
              "internalType": "address",
              "name": "reviewer",
              "type": "address"
            },
            {
              "internalType": "string",
              "name": "comment",
              "type": "string"
            },
            {
              "internalType": "uint128",
              "name": "upVote",
              "type": "uint128"
            },
            {
              "internalType": "uint128",
              "name": "downVote",
              "type": "uint128"
            }
          ],
          "internalType": "struct DaoReview.Review",
          "name": "",
          "type": "tuple"
        }
      ],
      "stateMutability": "view",
      "type": "function"
    },
    {
      "inputs": [
        {
          "internalType": "address",
          "name": "_uniqueAddress",
          "type": "address"
        }
      ],
      "name": "getReviewIDsForDao",
      "outputs": [
        {
          "internalType": "uint256[]",
          "name": "",
          "type": "uint256[]"
        }
      ],
      "stateMutability": "view",
      "type": "function"
    },
    {
      "inputs": [
        {
          "internalType": "address",
          "name": "_daoCreator",
          "type": "address"
        },
        {
          "internalType": "address[]",
          "name": "_daoOwners",
          "type": "address[]"
        },
        {
          "internalType": "address",
          "name": "uniqueAddress",
          "type": "address"
        },
        {
          "internalType": "bool",
          "name": "_isErc20Gated",
          "type": "bool"
        },
        {
          "internalType": "string",
          "name": "_ipfsHash",
          "type": "string"
        }
      ],
      "name": "registerDao",
      "outputs": [
        {
          "internalType": "address",
          "name": "",
          "type": "address"
        }
      ],
      "stateMutability": "nonpayable",
      "type": "function"
    },
    {
      "inputs": [
        {
          "internalType": "address",
          "name": "daoAddress",
          "type": "address"
        },
        {
          "internalType": "string",
          "name": "_ipfsHash",
          "type": "string"
        }
      ],
      "name": "reviewDao",
      "outputs": [
        {
          "internalType": "uint256",
          "name": "",
          "type": "uint256"
        }
      ],
      "stateMutability": "nonpayable",
      "type": "function"
    },
    {
      "inputs": [
        {
          "internalType": "uint256",
          "name": "reviewId",
          "type": "uint256"
        },
        {
          "internalType": "bool",
          "name": "vote",
          "type": "bool"
        },
        {
          "internalType": "address",
          "name": "_uniqueAddress",
          "type": "address"
        }
      ],
      "name": "voteForReview",
      "outputs": [],
      "stateMutability": "nonpayable",
      "type": "function"
    }
  ],
  "bytecode": "0x608060405234801561001057600080fd5b50612bfb806100206000396000f3fe608060405234801561001057600080fd5b50600436106100625760003560e01c80632c583b2f1461006757806374dbdc03146100975780637e3a044f146100b3578063b4fc8d41146100e3578063b825286f14610113578063eee4f82014610143575b600080fd5b610081600480360381019061007c9190611f06565b610173565b60405161008e9190612148565b60405180910390f35b6100b160048036038101906100ac91906121cc565b610424565b005b6100cd60048036038101906100c8919061241c565b610b00565b6040516100da91906124de565b60405180910390f35b6100fd60048036038101906100f89190611f06565b6110c7565b60405161010a91906125b7565b60405180910390f35b61012d600480360381019061012891906125d9565b61115e565b60405161013a9190612644565b60405180910390f35b61015d6004803603810190610158919061265f565b6118dd565b60405161016a919061272d565b60405180910390f35b61017b611c7b565b600160008373ffffffffffffffffffffffffffffffffffffffff1673ffffffffffffffffffffffffffffffffffffffff1681526020019081526020016000206040518060e00160405290816000820160009054906101000a900473ffffffffffffffffffffffffffffffffffffffff1673ffffffffffffffffffffffffffffffffffffffff1673ffffffffffffffffffffffffffffffffffffffff168152602001600182018054806020026020016040519081016040528092919081815260200182805480156102a057602002820191906000526020600020905b8160009054906101000a900473ffffffffffffffffffffffffffffffffffffffff1673ffffffffffffffffffffffffffffffffffffffff1681526020019060010190808311610256575b505050505081526020016002820180546102b99061277e565b80601f01602080910402602001604051908101604052809291908181526020018280546102e59061277e565b80156103325780601f1061030757610100808354040283529160200191610332565b820191906000526020600020905b81548152906001019060200180831161031557829003601f168201915b505050505081526020016003820160009054906101000a900473ffffffffffffffffffffffffffffffffffffffff1673ffffffffffffffffffffffffffffffffffffffff1673ffffffffffffffffffffffffffffffffffffffff1681526020016004820160009054906101000a900473ffffffffffffffffffffffffffffffffffffffff1673ffffffffffffffffffffffffffffffffffffffff1673ffffffffffffffffffffffffffffffffffffffff1681526020016004820160149054906101000a900460ff161515151581526020016004820160159054906101000a900460ff1615151515815250509050919050565b6000600360008581526020019081526020016000206040518060a0016040529081600082015481526020016001820160009054906101000a900473ffffffffffffffffffffffffffffffffffffffff1673ffffffffffffffffffffffffffffffffffffffff1673ffffffffffffffffffffffffffffffffffffffff1681526020016002820180546104b49061277e565b80601f01602080910402602001604051908101604052809291908181526020018280546104e09061277e565b801561052d5780601f106105025761010080835404028352916020019161052d565b820191906000526020600020905b81548152906001019060200180831161051057829003601f168201915b505050505081526020016003820160009054906101000a90046fffffffffffffffffffffffffffffffff166fffffffffffffffffffffffffffffffff166fffffffffffffffffffffffffffffffff1681526020016003820160109054906101000a90046fffffffffffffffffffffffffffffffff166fffffffffffffffffffffffffffffffff166fffffffffffffffffffffffffffffffff168152505090506000600160008473ffffffffffffffffffffffffffffffffffffffff1673ffffffffffffffffffffffffffffffffffffffff1681526020019081526020016000206040518060e00160405290816000820160009054906101000a900473ffffffffffffffffffffffffffffffffffffffff1673ffffffffffffffffffffffffffffffffffffffff1673ffffffffffffffffffffffffffffffffffffffff168152602001600182018054806020026020016040519081016040528092919081815260200182805480156106f357602002820191906000526020600020905b8160009054906101000a900473ffffffffffffffffffffffffffffffffffffffff1673ffffffffffffffffffffffffffffffffffffffff16815260200190600101908083116106a9575b5050505050815260200160028201805461070c9061277e565b80601f01602080910402602001604051908101604052809291908181526020018280546107389061277e565b80156107855780601f1061075a57610100808354040283529160200191610785565b820191906000526020600020905b81548152906001019060200180831161076857829003601f168201915b505050505081526020016003820160009054906101000a900473ffffffffffffffffffffffffffffffffffffffff1673ffffffffffffffffffffffffffffffffffffffff1673ffffffffffffffffffffffffffffffffffffffff1681526020016004820160009054906101000a900473ffffffffffffffffffffffffffffffffffffffff1673ffffffffffffffffffffffffffffffffffffffff1673ffffffffffffffffffffffffffffffffffffffff1681526020016004820160149054906101000a900460ff161515151581526020016004820160159054906101000a900460ff16151515158152505090508060c001511561093b5783801561089557506108943382608001516001611a90565b5b156108df57600182606001516108ab91906127df565b82606001906fffffffffffffffffffffffffffffffff1690816fffffffffffffffffffffffffffffffff1681525050610936565b6108ef3382608001516001611a90565b15610935576001826080015161090591906127df565b82608001906fffffffffffffffffffffffffffffffff1690816fffffffffffffffffffffffffffffffff16815250505b5b6109f6565b83801561095457506109533382606001516001611a90565b5b1561099e576001826060015161096a91906127df565b82606001906fffffffffffffffffffffffffffffffff1690816fffffffffffffffffffffffffffffffff16815250506109f5565b6109ae3382606001516001611a90565b156109f457600182608001516109c491906127df565b82608001906fffffffffffffffffffffffffffffffff1690816fffffffffffffffffffffffffffffffff16815250505b5b5b81600360008781526020019081526020016000206000820151816000015560208201518160010160006101000a81548173ffffffffffffffffffffffffffffffffffffffff021916908373ffffffffffffffffffffffffffffffffffffffff1602179055506040820151816002019080519060200190610a77929190611cfe565b5060608201518160030160006101000a8154816fffffffffffffffffffffffffffffffff02191690836fffffffffffffffffffffffffffffffff16021790555060808201518160030160106101000a8154816fffffffffffffffffffffffffffffffff02191690836fffffffffffffffffffffffffffffffff1602179055509050505050505050565b60008073ffffffffffffffffffffffffffffffffffffffff168673ffffffffffffffffffffffffffffffffffffffff161415610b71576040517f08c379a0000000000000000000000000000000000000000000000000000000008152600401610b6890612882565b60405180910390fd5b6000855111610bb5576040517f08c379a0000000000000000000000000000000000000000000000000000000008152600401610bac906128ee565b60405180910390fd5b600073ffffffffffffffffffffffffffffffffffffffff168473ffffffffffffffffffffffffffffffffffffffff161415610c25576040517f08c379a0000000000000000000000000000000000000000000000000000000008152600401610c1c90612980565b60405180910390fd5b8215610e3d576040518060e001604052808773ffffffffffffffffffffffffffffffffffffffff168152602001868152602001838152602001600073ffffffffffffffffffffffffffffffffffffffff1681526020018573ffffffffffffffffffffffffffffffffffffffff16815260200160011515815260200160011515815250600160008673ffffffffffffffffffffffffffffffffffffffff1673ffffffffffffffffffffffffffffffffffffffff16815260200190815260200160002060008201518160000160006101000a81548173ffffffffffffffffffffffffffffffffffffffff021916908373ffffffffffffffffffffffffffffffffffffffff1602179055506020820151816001019080519060200190610d49929190611d84565b506040820151816002019080519060200190610d66929190611cfe565b5060608201518160030160006101000a81548173ffffffffffffffffffffffffffffffffffffffff021916908373ffffffffffffffffffffffffffffffffffffffff16021790555060808201518160040160006101000a81548173ffffffffffffffffffffffffffffffffffffffff021916908373ffffffffffffffffffffffffffffffffffffffff16021790555060a08201518160040160146101000a81548160ff02191690831515021790555060c08201518160040160156101000a81548160ff02191690831515021790555090505061104b565b6040518060e001604052808773ffffffffffffffffffffffffffffffffffffffff1681526020018681526020018381526020018573ffffffffffffffffffffffffffffffffffffffff168152602001600073ffffffffffffffffffffffffffffffffffffffff16815260200160011515815260200160001515815250600160008673ffffffffffffffffffffffffffffffffffffffff1673ffffffffffffffffffffffffffffffffffffffff16815260200190815260200160002060008201518160000160006101000a81548173ffffffffffffffffffffffffffffffffffffffff021916908373ffffffffffffffffffffffffffffffffffffffff1602179055506020820151816001019080519060200190610f5b929190611d84565b506040820151816002019080519060200190610f78929190611cfe565b5060608201518160030160006101000a81548173ffffffffffffffffffffffffffffffffffffffff021916908373ffffffffffffffffffffffffffffffffffffffff16021790555060808201518160040160006101000a81548173ffffffffffffffffffffffffffffffffffffffff021916908373ffffffffffffffffffffffffffffffffffffffff16021790555060a08201518160040160146101000a81548160ff02191690831515021790555060c08201518160040160156101000a81548160ff0219169083151502179055509050505b8160405161105991906129dc565b60405180910390208473ffffffffffffffffffffffffffffffffffffffff168773ffffffffffffffffffffffffffffffffffffffff167f87efdefc545e4a926431f358053a7ddaf28342672ba94923d20b4c07451b75a060405160405180910390a483905095945050505050565b6060600260008373ffffffffffffffffffffffffffffffffffffffff1673ffffffffffffffffffffffffffffffffffffffff16815260200190815260200160002080548060200260200160405190810160405280929190818152602001828054801561115257602002820191906000526020600020905b81548152602001906001019080831161113e575b50505050509050919050565b600080600160008573ffffffffffffffffffffffffffffffffffffffff1673ffffffffffffffffffffffffffffffffffffffff1681526020019081526020016000206040518060e00160405290816000820160009054906101000a900473ffffffffffffffffffffffffffffffffffffffff1673ffffffffffffffffffffffffffffffffffffffff1673ffffffffffffffffffffffffffffffffffffffff1681526020016001820180548060200260200160405190810160405280929190818152602001828054801561128657602002820191906000526020600020905b8160009054906101000a900473ffffffffffffffffffffffffffffffffffffffff1673ffffffffffffffffffffffffffffffffffffffff168152602001906001019080831161123c575b5050505050815260200160028201805461129f9061277e565b80601f01602080910402602001604051908101604052809291908181526020018280546112cb9061277e565b80156113185780601f106112ed57610100808354040283529160200191611318565b820191906000526020600020905b8154815290600101906020018083116112fb57829003601f168201915b505050505081526020016003820160009054906101000a900473ffffffffffffffffffffffffffffffffffffffff1673ffffffffffffffffffffffffffffffffffffffff1673ffffffffffffffffffffffffffffffffffffffff1681526020016004820160009054906101000a900473ffffffffffffffffffffffffffffffffffffffff1673ffffffffffffffffffffffffffffffffffffffff1673ffffffffffffffffffffffffffffffffffffffff1681526020016004820160149054906101000a900460ff161515151581526020016004820160159054906101000a900460ff1615151515815250509050600073ffffffffffffffffffffffffffffffffffffffff16816000015173ffffffffffffffffffffffffffffffffffffffff161415611479576040517f08c379a000000000000000000000000000000000000000000000000000000000815260040161147090612a3f565b60405180910390fd5b6114836000611c57565b600061148f6000611c6d565b90508160c0015180156114ae57506114ad3383608001516001611a90565b5b15611687576040518060a001604052804281526020013373ffffffffffffffffffffffffffffffffffffffff16815260200185815260200160006fffffffffffffffffffffffffffffffff16815260200160006fffffffffffffffffffffffffffffffff16815250600360008381526020019081526020016000206000820151816000015560208201518160010160006101000a81548173ffffffffffffffffffffffffffffffffffffffff021916908373ffffffffffffffffffffffffffffffffffffffff1602179055506040820151816002019080519060200190611596929190611cfe565b5060608201518160030160006101000a8154816fffffffffffffffffffffffffffffffff02191690836fffffffffffffffffffffffffffffffff16021790555060808201518160030160106101000a8154816fffffffffffffffffffffffffffffffff02191690836fffffffffffffffffffffffffffffffff16021790555090505060026000836080015173ffffffffffffffffffffffffffffffffffffffff1673ffffffffffffffffffffffffffffffffffffffff16815260200190815260200160002081908060018154018082558091505060019003906000526020600020016000909190919091505561186d565b6116973383606001516000611a90565b1561186c576040518060a001604052804281526020013373ffffffffffffffffffffffffffffffffffffffff16815260200185815260200160006fffffffffffffffffffffffffffffffff16815260200160006fffffffffffffffffffffffffffffffff16815250600360008381526020019081526020016000206000820151816000015560208201518160010160006101000a81548173ffffffffffffffffffffffffffffffffffffffff021916908373ffffffffffffffffffffffffffffffffffffffff160217905550604082015181600201908051906020019061177f929190611cfe565b5060608201518160030160006101000a8154816fffffffffffffffffffffffffffffffff02191690836fffffffffffffffffffffffffffffffff16021790555060808201518160030160106101000a8154816fffffffffffffffffffffffffffffffff02191690836fffffffffffffffffffffffffffffffff16021790555090505060026000836060015173ffffffffffffffffffffffffffffffffffffffff1673ffffffffffffffffffffffffffffffffffffffff1681526020019081526020016000208190806001815401808255809150506001900390600052602060002001600090919091909150555b5b8360405161187b91906129dc565b60405180910390208573ffffffffffffffffffffffffffffffffffffffff16827fa46ca2e54ca2e3dc0e0f99a8688532096c9f7864436860c6fbe86adc32350e57336040516118ca91906124de565b60405180910390a4809250505092915050565b6118e5611e0e565b600360008381526020019081526020016000206040518060a0016040529081600082015481526020016001820160009054906101000a900473ffffffffffffffffffffffffffffffffffffffff1673ffffffffffffffffffffffffffffffffffffffff1673ffffffffffffffffffffffffffffffffffffffff1681526020016002820180546119739061277e565b80601f016020809104026020016040519081016040528092919081815260200182805461199f9061277e565b80156119ec5780601f106119c1576101008083540402835291602001916119ec565b820191906000526020600020905b8154815290600101906020018083116119cf57829003601f168201915b505050505081526020016003820160009054906101000a90046fffffffffffffffffffffffffffffffff166fffffffffffffffffffffffffffffffff166fffffffffffffffffffffffffffffffff1681526020016003820160109054906101000a90046fffffffffffffffffffffffffffffffff166fffffffffffffffffffffffffffffffff166fffffffffffffffffffffffffffffffff16815250509050919050565b60008115611b7457600083905060008173ffffffffffffffffffffffffffffffffffffffff166370a08231876040518263ffffffff1660e01b8152600401611ad891906124de565b60206040518083038186803b158015611af057600080fd5b505afa158015611b04573d6000803e3d6000fd5b505050506040513d601f19601f82011682018060405250810190611b289190612a74565b905060008111611b6d576040517f08c379a0000000000000000000000000000000000000000000000000000000008152600401611b6490612b13565b60405180910390fd5b5050611c4c565b600083905060008173ffffffffffffffffffffffffffffffffffffffff166370a08231876040518263ffffffff1660e01b8152600401611bb491906124de565b60206040518083038186803b158015611bcc57600080fd5b505afa158015611be0573d6000803e3d6000fd5b505050506040513d601f19601f82011682018060405250810190611c049190612a74565b905060008111611c49576040517f08c379a0000000000000000000000000000000000000000000000000000000008152600401611c4090612ba5565b60405180910390fd5b50505b600190509392505050565b6001816000016000828254019250508190555050565b600081600001549050919050565b6040518060e00160405280600073ffffffffffffffffffffffffffffffffffffffff1681526020016060815260200160608152602001600073ffffffffffffffffffffffffffffffffffffffff168152602001600073ffffffffffffffffffffffffffffffffffffffff1681526020016000151581526020016000151581525090565b828054611d0a9061277e565b90600052602060002090601f016020900481019282611d2c5760008555611d73565b82601f10611d4557805160ff1916838001178555611d73565b82800160010185558215611d73579182015b82811115611d72578251825591602001919060010190611d57565b5b509050611d809190611e77565b5090565b828054828255906000526020600020908101928215611dfd579160200282015b82811115611dfc5782518260006101000a81548173ffffffffffffffffffffffffffffffffffffffff021916908373ffffffffffffffffffffffffffffffffffffffff16021790555091602001919060010190611da4565b5b509050611e0a9190611e77565b5090565b6040518060a0016040528060008152602001600073ffffffffffffffffffffffffffffffffffffffff1681526020016060815260200160006fffffffffffffffffffffffffffffffff16815260200160006fffffffffffffffffffffffffffffffff1681525090565b5b80821115611e90576000816000905550600101611e78565b5090565b6000604051905090565b600080fd5b600080fd5b600073ffffffffffffffffffffffffffffffffffffffff82169050919050565b6000611ed382611ea8565b9050919050565b611ee381611ec8565b8114611eee57600080fd5b50565b600081359050611f0081611eda565b92915050565b600060208284031215611f1c57611f1b611e9e565b5b6000611f2a84828501611ef1565b91505092915050565b611f3c81611ec8565b82525050565b600081519050919050565b600082825260208201905092915050565b6000819050602082019050919050565b6000611f7a8383611f33565b60208301905092915050565b6000602082019050919050565b6000611f9e82611f42565b611fa88185611f4d565b9350611fb383611f5e565b8060005b83811015611fe4578151611fcb8882611f6e565b9750611fd683611f86565b925050600181019050611fb7565b5085935050505092915050565b600081519050919050565b600082825260208201905092915050565b60005b8381101561202b578082015181840152602081019050612010565b8381111561203a576000848401525b50505050565b6000601f19601f8301169050919050565b600061205c82611ff1565b6120668185611ffc565b935061207681856020860161200d565b61207f81612040565b840191505092915050565b60008115159050919050565b61209f8161208a565b82525050565b600060e0830160008301516120bd6000860182611f33565b50602083015184820360208601526120d58282611f93565b915050604083015184820360408601526120ef8282612051565b91505060608301516121046060860182611f33565b5060808301516121176080860182611f33565b5060a083015161212a60a0860182612096565b5060c083015161213d60c0860182612096565b508091505092915050565b6000602082019050818103600083015261216281846120a5565b905092915050565b6000819050919050565b61217d8161216a565b811461218857600080fd5b50565b60008135905061219a81612174565b92915050565b6121a98161208a565b81146121b457600080fd5b50565b6000813590506121c6816121a0565b92915050565b6000806000606084860312156121e5576121e4611e9e565b5b60006121f38682870161218b565b9350506020612204868287016121b7565b925050604061221586828701611ef1565b9150509250925092565b600080fd5b7f4e487b7100000000000000000000000000000000000000000000000000000000600052604160045260246000fd5b61225c82612040565b810181811067ffffffffffffffff8211171561227b5761227a612224565b5b80604052505050565b600061228e611e94565b905061229a8282612253565b919050565b600067ffffffffffffffff8211156122ba576122b9612224565b5b602082029050602081019050919050565b600080fd5b60006122e36122de8461229f565b612284565b90508083825260208201905060208402830185811115612306576123056122cb565b5b835b8181101561232f578061231b8882611ef1565b845260208401935050602081019050612308565b5050509392505050565b600082601f83011261234e5761234d61221f565b5b813561235e8482602086016122d0565b91505092915050565b600080fd5b600067ffffffffffffffff82111561238757612386612224565b5b61239082612040565b9050602081019050919050565b82818337600083830152505050565b60006123bf6123ba8461236c565b612284565b9050828152602081018484840111156123db576123da612367565b5b6123e684828561239d565b509392505050565b600082601f8301126124035761240261221f565b5b81356124138482602086016123ac565b91505092915050565b600080600080600060a0868803121561243857612437611e9e565b5b600061244688828901611ef1565b955050602086013567ffffffffffffffff81111561246757612466611ea3565b5b61247388828901612339565b945050604061248488828901611ef1565b9350506060612495888289016121b7565b925050608086013567ffffffffffffffff8111156124b6576124b5611ea3565b5b6124c2888289016123ee565b9150509295509295909350565b6124d881611ec8565b82525050565b60006020820190506124f360008301846124cf565b92915050565b600081519050919050565b600082825260208201905092915050565b6000819050602082019050919050565b61252e8161216a565b82525050565b60006125408383612525565b60208301905092915050565b6000602082019050919050565b6000612564826124f9565b61256e8185612504565b935061257983612515565b8060005b838110156125aa5781516125918882612534565b975061259c8361254c565b92505060018101905061257d565b5085935050505092915050565b600060208201905081810360008301526125d18184612559565b905092915050565b600080604083850312156125f0576125ef611e9e565b5b60006125fe85828601611ef1565b925050602083013567ffffffffffffffff81111561261f5761261e611ea3565b5b61262b858286016123ee565b9150509250929050565b61263e8161216a565b82525050565b60006020820190506126596000830184612635565b92915050565b60006020828403121561267557612674611e9e565b5b60006126838482850161218b565b91505092915050565b60006fffffffffffffffffffffffffffffffff82169050919050565b6126b18161268c565b82525050565b600060a0830160008301516126cf6000860182612525565b5060208301516126e26020860182611f33565b50604083015184820360408601526126fa8282612051565b915050606083015161270f60608601826126a8565b50608083015161272260808601826126a8565b508091505092915050565b6000602082019050818103600083015261274781846126b7565b905092915050565b7f4e487b7100000000000000000000000000000000000000000000000000000000600052602260045260246000fd5b6000600282049050600182168061279657607f821691505b602082108114156127aa576127a961274f565b5b50919050565b7f4e487b7100000000000000000000000000000000000000000000000000000000600052601160045260246000fd5b60006127ea8261268c565b91506127f58361268c565b9250826fffffffffffffffffffffffffffffffff0382111561281a576128196127b0565b5b828201905092915050565b600082825260208201905092915050565b7f43726561746f7220416464726573732063616e6e6f74206265207a65726f0000600082015250565b600061286c601e83612825565b915061287782612836565b602082019050919050565b6000602082019050818103600083015261289b8161285f565b9050919050565b7f44414f204f776e6572732063616e6e6f74206265203000000000000000000000600082015250565b60006128d8601683612825565b91506128e3826128a2565b602082019050919050565b60006020820190508181036000830152612907816128cb565b9050919050565b7f44414f206e6565647320746f2062652070726f76696465206120676174696e6760008201527f20616464726573732e0000000000000000000000000000000000000000000000602082015250565b600061296a602983612825565b91506129758261290e565b604082019050919050565b600060208201905081810360008301526129998161295d565b9050919050565b600081905092915050565b60006129b682611ff1565b6129c081856129a0565b93506129d081856020860161200d565b80840191505092915050565b60006129e882846129ab565b915081905092915050565b7f44414f206e6f7420666f756e6421000000000000000000000000000000000000600082015250565b6000612a29600e83612825565b9150612a34826129f3565b602082019050919050565b60006020820190508181036000830152612a5881612a1c565b9050919050565b600081519050612a6e81612174565b92915050565b600060208284031215612a8a57612a89611e9e565b5b6000612a9884828501612a5f565b91505092915050565b7f45524332302047617465643a2055736572206973206e6f74206120706172742060008201527f6f66207468652044414f00000000000000000000000000000000000000000000602082015250565b6000612afd602a83612825565b9150612b0882612aa1565b604082019050919050565b60006020820190508181036000830152612b2c81612af0565b9050919050565b7f4552433732312047617465643a2055736572206973206e6f742061207061727460008201527f206f66207468652044414f000000000000000000000000000000000000000000602082015250565b6000612b8f602b83612825565b9150612b9a82612b33565b604082019050919050565b60006020820190508181036000830152612bbe81612b82565b905091905056fea2646970667358221220af9b11b73cc1873fec84845ba1b511337e513b435c48436ffe4bc812bc36093c64736f6c63430008090033",
  "linkReferences": {},
  "deployedLinkReferences": {}
}